:020000040800F2
:100000000050002009470008A50B0008A90B0008B4
:10001000AD0B0008B10B0008B50B00080000000094
:10002000000000000000000000000000B90B000804
:10003000BD0B000800000000C10B0008C50B000844
:100040005147000851470008514700085147000830
:100050005147000851470008514700085147000820
:100060005147000851470008514700085147000810
:100070005147000851470008514700085147000800
:10008000514700085147000851470008C90B0008B4
:10009000D50B000851470008514700085147000898
:1000A00051470008514700085147000851470008D0
:1000B00051470008514700085147000851470008C0
:1000C00051470008514700085147000851470008B0
:1000D00051470008514700085147000851470008A0
:1000E0005147000851470008514700080000000030
:1000F0000000000000000000000000000000000000
:0C01000000000000000000005FF808F1A3
:10010C00034613F8012B002AFBD1181A013870474B
:10011C0070B54FF0FF0C4CF4E06C1CEA11541DBF91
:10012C001CEA135594EA0C0F95EA0C0F00F0DEF85C
:10013C002C4481EA030621EA4C5123EA4C5350EA41
:10014C00013518BF52EA033541F4801143F4801392
:10015C0038D0A0FB02CE4FF00005E1FB02E506F023
:10016C000042E0FB03E54FF00006E1FB03569CF078
:10017C00000F18BF4EF0010EA4F1FF04B6F5007F7E
:10018C0064F5407404D25FEA4E0E6D4146EB0606F0
:10019C0042EAC62141EA55514FEAC52040EA5E5079
:1001AC004FEACE2EB4F1FD0C88BFBCF5E06F1ED823
:1001BC00BEF1004F08BF5FEA500E50F1000041EB5A
:1001CC00045170BD06F0004646EA010140EA020007
:1001DC0081EA0301B4EB5C04C2BFD4EB0C0541EA29
:1001EC00045170BD41F480114FF0000E013C00F33E
:1001FC00AB8014F1360FDEBF002001F0004170BD62
:10020C00C4F10004203C35DA0C341BDC04F114047A
:10021C00C4F1200500FA05F320FA04F001FA05F206
:10022C0040EA020001F0004221F0004110EBD370D3
:10023C0021FA04F642EB06015EEA430E08BF20EAFF
:10024C00D37070BDC4F10C04C4F1200500FA04F3A2
:10025C0020FA05F001FA04F240EA020001F0004134
:10026C0010EBD37041F100015EEA430E08BF20EAA7
:10027C00D37070BDC4F1200500FA05F24EEA020EEF
:10028C0020FA04F301FA05F243EA020321FA04F01E
:10029C0001F0004121FA04F220EA020000EBD370D5
:1002AC005EEA430E08BF20EAD37070BD94F0000FD5
:1002BC000FD101F00046400041EB010111F4801F09
:1002CC0008BF013CF7D041EA060195F0000F18BFBA
:1002DC00704703F00046520043EB030313F4801FF6
:1002EC0008BF013DF7D043EA0603704794EA0C0FB0
:1002FC000CEA135518BF95EA0C0F0CD050EA4106C6
:10030C0018BF52EA4306D1D181EA030101F0004142
:10031C004FF0000070BD50EA410606BF104619466A
:10032C0052EA430619D094EA0C0F02D150EA013676
:10033C0013D195EA0C0F05D152EA03361CBF1046B7
:10034C0019460AD181EA030101F0004141F0FE4156
:10035C0041F470014FF0000070BD41F0FE4141F4DA
:10036C00780170BD81F0004102E000BF83F00043D2
:10037C0030B54FEA41044FEA430594EA050F08BF34
:10038C0090EA020F1FBF54EA000C55EA020C7FEAF8
:10039C00645C7FEA655C00F0E2804FEA5454D4EB75
:1003AC005555B8BF6D420CDD2C4480EA020281EA3F
:1003BC00030382EA000083EA010180EA020281EA77
:1003CC000303362D88BF30BD11F0004F4FEA0131C9
:1003DC004FF4801C4CEA113102D0404261EB4101D8
:1003EC0013F0004F4FEA03334CEA133302D052425E
:1003FC0063EB430394EA050F00F0A780A4F101041A
:10040C00D5F1200E0DDB02FA0EFC22FA05F2801853
:10041C0041F1000103FA0EF2801843FA05F3594139
:10042C000EE0A5F120050EF1200E012A03FA0EFCB8
:10043C0028BF4CF0020C43FA05F3C01851EBE371E2
:10044C0001F0004507D54FF0000EDCF1000C7EEBFF
:10045C0000006EEB0101B1F5801F1BD3B1F5001F3D
:10046C000CD349085FEA30004FEA3C0C04F101045C
:10047C004FEA445212F5800F80F09A80BCF1004F85
:10048C0008BF5FEA500C50F1000041EB045141EA07
:10049C00050130BD5FEA4C0C404141EB0101013CD0
:1004AC0028BFB1F5801FE9D291F0000F04BF0146BF
:1004BC000020B1FA81F308BF2033A3F10B03B3F191
:1004CC0020020CDA0C3208DD02F1140CC2F10C0221
:1004DC0001FA0CF021FA02F10CE002F11402D8BF7F
:1004EC00C2F1200C01FA02F120FA0CFCDCBF41EA4B
:1004FC000C019040E41AA2BF01EB0451294330BD1A
:10050C006FEA04041F3C1CDA0C340EDC04F11404F6
:10051C00C4F1200220FA04F001FA02F340EA0300CD
:10052C0021FA04F345EA030130BDC4F10C04C4F113
:10053C00200220FA02F001FA04F340EA03002946F3
:10054C0030BD21FA04F0294630BD94F0000F83F43D
:10055C00801306BF81F480110134013D4EE77FEA20
:10056C00645C18BF7FEA655C29D094EA050F08BF6C
:10057C0090EA020F05D054EA000C04BF194610464D
:10058C0030BD91EA030F1EBF0021002030BD5FEA91
:10059C00545C05D14000494128BF41F0004130BDB9
:1005AC0014F580043CBF01F5801130BD01F000450D
:1005BC0045F0FE4141F470014FF0000030BD7FEA80
:1005CC00645C1ABF194610467FEA655C1CBF0B467B
:1005DC00024650EA013406BF52EA033591EA030F92
:1005EC0041F4002130BD00BF90F0000F04BF00218A
:1005FC00704730B54FF4806404F132044FF00005BD
:10060C004FF0000150E700BF90F0000F04BF002135
:10061C00704730B54FF4806404F1320410F000459B
:10062C0048BF40424FF000013EE700BF42004FEA96
:10063C00E2014FEA31014FEA02701FBF12F07F4313
:10064C0093F07F4F81F06051704732F07F4208BFCA
:10065C00704793F07F4F04BF41F40021704730B5D1
:10066C004FF4607401F0004521F000411CE700BF1D
:10067C0050EA010208BF704730B54FF000050AE0A0
:10068C0050EA010208BF704730B511F0004502D5A1
:10069C00404261EB41014FF4806404F132045FEAA3
:1006AC00915C3FF4D8AE4FF003025FEADC0C18BF4C
:1006BC0003325FEADC0C18BF033202EBDC02C2F13E
:1006CC00200300FA03FC20FA02F001FA03FE40EAD0
:1006DC000E0021FA02F11444BDE600BF4FEA4102BC
:1006EC0012F5001215D211D56FF47873B3EB625278
:1006FC0012D94FEAC12343F0004343EA505311F09F
:10070C00004F23FA02F018BF404270474FF0000030
:10071C00704750EA013005D111F0004008BF6FF06E
:10072C00004070474FF00000704700BF0348044B77
:10073C00834202D0034B03B1184770477C01002061
:10074C007C010020000000000548064B1B1AD90F45
:10075C0001EBA301491002D0034B03B118477047BA
:10076C007C0100207C0100200000000010B5064C2C
:10077C00237843B9FFF7DAFF044B13B10448AFF306
:10078C0000800123237010BD8001002000000000B8
:10079C00AC47000808B5054B1BB105490548AFF33C
:1007AC000080BDE80840FFF7CFBF00BF000000008D
:1007BC0084010020AC4700084FF4803230B5012092
:1007CC0095B04FF4803100230124022512924FF48E
:1007DC008012CDE90A010AA8CDE90F33CDE9063321
:1007EC00CDE902330C93059301930E9411950D935F
:1007FC00089309930493139202F02EFA08B172B67F
:10080C00FEE703464FF48062079309930F232146BA
:10081C0005A806950892059302F034FC08B172B64F
:10082C00FEE710224FF4800301A80192049302F01A
:10083C00C9FC08B172B6FEE715B030BD08B502F0C0
:10084C00E7F9FFF7B9FF00F025F800F0A9F800F080
:10085C00E3F900F033F900210B4802F085FF042185
:10086C00094802F081FF0821074802F07DFF0021B2
:10087C00064802F079FF0421044802F075FF0821B4
:10088C00024802F071FFFEE7E80100209C01002005
:10089C0072B6FEE70A4B82B09A6942F020029A6166
:1008AC009A6902F020020092009A9A6942F00402BE
:1008BC009A619B6903F004030193019B02B070479A
:1008CC0000100240114A036882B0934211D0B3F178
:1008DC00804F01D002B0704703F50433DA6942F05F
:1008EC000102DA61DB6903F001030193019B02B0A1
:1008FC007047074B9A6942F400629A619B6903F452
:10090C0000630093009B02B0704700BF002C0140B5
:10091C0000100240002370B51E49026886B08A425E
:10092C00CDE90233CDE9043304D0B2F1804F1BD0B2
:10093C0006B070BD4FF4E0640225022603F180433B
:10094C0003F504339A69144842F004029A619B69D6
:10095C0002A903F004030093CDE90245009B059620
:10096C0002F0B0FC06B070BD0724022502260B4B2A
:10097C0009489A6902A942F004029A619B69CDE97F
:10098C00024503F004030193019B059602F09AFCC7
:10099C0006B070BD002C0140000801400010024060
:1009AC0030B5002497B0202221460EA8CDE903448F
:1009BC00CDE90744CDE90944CDE90B4402940094F8
:1009CC0006940594019403F0BEFE40F24B432C2296
:1009DC003848C0E90243384BC0E9044442608461A2
:1009EC00036002F0B9FF002848D14FF4805331481E
:1009FC0002A9029302F0BAFE002858D12D4802F049
:100A0C00D9FF002850D10022002369462948CDE99E
:100A1C00002303F08BF8002843D100200021002292
:100A2C006023CDE90A01234806A9CDE90632CDE9B8
:100A3C0008220C9203F01AF880BB04221D4806A968
:100A4C0003F014F838BB08221A4806A903F00EF874
:100A5C00F0B9002300244FF4005516480EA9CDE937
:100A6C001245CDE90F330E931193159303F090F8C3
:100A7C0038B91048FFF74EFF17B030BDFFF708FF2D
:100A8C00B3E7FFF705FF0B48FFF744FF17B030BD86
:100A9C00FFF7FEFEDDE7FFF7FBFED4E7FFF7F8FEFE
:100AAC00CBE7FFF7F5FEB8E7FFF7F2FEABE7FFF792
:100ABC00EFFEA3E7E8010020002C014000234FF0DB
:100ACC0080414FF6FF7230B532488FB0C0E9013328
:100ADC00C0E90323CDE90333CDE90733CDE909336D
:100AEC00CDE90B3301600293009306938361059368
:100AFC00019302F031FF002833D14FF48053254885
:100B0C0002A9029302F032FE002840D1214802F0E3
:100B1C0051FF002838D10022002369461D48CDE939
:100B2C00002303F003F860BB002260240025194861
:100B3C0006A9CDE9064508920A9202F097FFE8B99A
:100B4C000422144806A902F091FFA0B9082211480A
:100B5C0006A902F08BFF38B90E48FFF7DBFE0FB089
:100B6C0030BDFFF795FEC8E7FFF792FE0948FFF787
:100B7C00D1FE0FB030BDFFF78BFEE7E7FFF788FE25
:100B8C00DEE7FFF785FECFE7FFF782FEC3E7FFF74F
:100B9C007FFEBBE79C010020FEE700BFFEE700BF25
:100BAC00FEE700BFFEE700BFFEE700BF704700BFD7
:100BBC00704700BF704700BF02F03CB8014800F01E
:100BCC0013BB00BF18110020014800F00DBB00BF83
:100BDC00181100200E4B82B09A690E4942F00102A6
:100BEC009A619A6902F001020092009ADA6942F065
:100BFC008052DA61DB6903F080530193019B4B68EF
:100C0C0023F0E06343F080634B6002B0704700BF99
:100C1C00001002400000014008B500221749184896
:100C2C0002F0E2FF70B91749154802F0F3FF88B9DA
:100C3C001549134803F030FDA0B9114802F0F2FF3A
:100C4C00B8B908BDFFF724FE0E490D4802F0E2FFCB
:100C5C000028EDD0FFF71CFE0B49094803F01CFDE2
:100C6C000028EAD0FFF714FE054802F0DBFF00284D
:100C7C00E7D0BDE80840FFF70BBE00BF34000020F2
:100C8C0030020020380100205000002012230148BF
:100C9C000B80704720000020042301480B80704714
:100CAC001C00002010B5044C0A460448214603F0F1
:100CBC0045FB204610BD00BFF4040020C4470008CB
:100CCC0010B5044C0A460448214603F037FB204675
:100CDC0010BD00BFF4040020D847000810B5044C28
:100CEC000A460448214603F029FB204610BD00BFEC
:100CFC00F4040020E447000810B5044C0A460448EC
:100D0C00214603F01BFB204610BD00BFF40400205D
:100D1C00F047000810B51A241948D0F8E837D0F875
:100D2C00F0270C809B1801D1164810BD154A0024E1
:100D3C001146D0F8EC0702F1100E4FEA137CB3F118
:100D4C00204F34BF0CF1300C0CF1370C81F802C081
:100D5C00CC7002318E454FEA0313EED100240A49C0
:100D6C00030FB0F1204F34BF303337339374D47446
:100D7C00023291424FEA0010F2D1024810BD00BF7E
:100D8C0000F0FF1F0000002008000020002070472A
:100D9C00002070470A682DE9F84F83189842834663
:100DAC0033D28946044600261D4FDFF878A008E0B0
:100DBC00C8F83400D9F8002004340BEB02039C4231
:100DCC0023D22578052DF7D8022DA5F1030392BF68
:100DDC005346DDB2144B2068D3F80080FFF726FC95
:100DEC0032463B46FFF794F9FFF778FC002DDFD035
:100DFC00012D0CBFC8F83800C8F83C00D9F8002009
:100E0C0004340BEB02039C42DBD35946074803F036
:100E1C0055FC064803F05AFC0020BDE8F88F00BFD3
:100E2C0000002440E80100209C010020300200203A
:100E3C0010B5064C00222046054903F035FC20462F
:100E4C00044903F03BFC002010BD00BF3002002021
:100E5C00F4060020F40A0020124B02689A4200D0DB
:100E6C007047002203F5DA33D96900B541F400016B
:100E7C00D961DB6983B003F400031146019313209D
:100E8C00019B02F039FB132002F072FB00221420AC
:100E9C00114602F031FB142003B05DF804EB02F0B4
:100EAC0067BB00BF005C00400146D0F8EC0201F5C6
:100EBC002C7102F0D3BE00BF01EB810300EBC30326
:100ECC00D3F87C21D0F8EC0202F0F8BE01EB8103E0
:100EDC0000EBC303DA6BD0F8EC0202F029BF00BFC1
:100EEC00D0F8EC0202F0C4BF836810B5022B0446A4
:100EFC0001D0FFF7CDFCD4F8EC02012102F0A0FFE9
:100F0C00D4F8EC02BDE8104002F072BF10B50446F4
:100F1C00D0F8EC0202F098FFA36923B1024A1369DE
:100F2C0043F00603136110BD00ED00E0D0F8EC02B5
:100F3C0002F094BF082238B5002400251E4B022174
:100F4C005A600022C3E9064504461A621B4AC3F8DC
:100F5C00EC421846C4F8C03299601A6000F0B2F83E
:100F6C0030BB002218231146D4F8C00201F002F85D
:100F7C00582300228021D4F8C00200F0FBFFC023CC
:100F8C0000228121D4F8C00200F0F4FF4FF48873E2
:100F9C0000220121D4F8C00200F0ECFF4FF4807362
:100FAC0000228221D4F8C00200F0E4FF002038BDFA
:100FBC00FFF76EFCD5E700BF18110020005C004065
:100FCC0008B5D0F8C00200F0F5F818B102280CBF33
:100FDC000120022008BD00BF944608B51A46D0F87F
:100FEC00C002634600F0A8FE18B102280CBF012015
:100FFC00022008BD08B5D0F8C00200F0D1FE18B12F
:10100C0002280CBF0120022008BD00BF08B5D0F893
:10101C00C00200F039FF18B102280CBF01200220D9
:10102C0008BD00BF08B5D0F8C00200F06BFF18B1C6
:10103C0002280CBF0120022008BD00BF0A06D0F810
:10104C00C03206D401EB810103EBC10393F86A01B2
:10105C00704701F07F01013101EB810103EBC1030A
:10106C009878704708B5D0F8C00200F04FFE18B160
:10107C0002280CBF0120022008BD00BF08B5D0F823
:10108C00C00200F0DDFE18B102280CBF01200220C6
:10109C0008BD00BF08B5D0F8C00200F0AFFE18B113
:1010AC0002280CBF0120022008BD00BFD0F8C002EE
:1010BC0000F0BCBE00487047F40E0020704700BF23
:1010CC00704700BFF0B587B010B390F8A932054651
:1010DC0003F0FF02002B67D003232E4685F8A932BC
:1010EC00286800F077FF56F810EB6C46B446BCE865
:1010FC000F000FC4DCF800302F1D2360704697E8FA
:10110C000E0000F055FF044630B1022385F8A932D9
:10111C000124204607B0F0BD0146286800F064FFAA
:10112C00686848B322464FF0010E214602EB820359
:10113C0005EBC30302F1010C83F828205FFA8CF253
:10114C008242C3E90E1183F829E083F82B1019644D
:10115C00ECD3002204EB840305EBC303611C83F87E
:10116C006841CCB28442C3E95E2283F8692183F8DA
:10117C006B21C3F88021EDD30FCE6C460FC43368BE
:10118C002868236097E80E0000F030FF0446002822
:10119C00BBD1012385F82400286885F8A93201F019
:1011AC00D9FC204607B0F0BD80F8A822FFF754FE0A
:1011BC0092E700BF38B590F8A832012B12D0044644
:1011CC000125006884F8A85200F0FAFE2946204652
:1011DC00FFF776FF206801F0BBFC002384F8A832EF
:1011EC00184638BD022038BD2DE9F04F054685B0B4
:1011FC00006801F0B1FC10F4004428D1460500F160
:10120C009F81410417D4820400F11D82C30400F1B4
:10121C00EA82070500F18880820500F19883C305F6
:10122C0012D52A68B2F8443023F480731B041B0CCB
:10123C00A2F8443008E02A68B2F8443023F4804322
:10124C001B041B0CA2F8443005B0BDE8F08F2868D5
:10125C00B0F844301A04F7D540F68F77C84E10E03A
:10126C0011F0100100F0EE80018811F400648BB2D3
:10127C0040F013811B0400F18581B0F844301B044D
:10128C00E2D5B0F8443013F00F0499B2E8D030F83E
:10129C0024304FEA840A19041FFA83F900F18D8077
:1012AC0019F0800FE9D030F824300AEB04089BB217
:1012BC00334043F4004320F8243005EBC80898F879
:1012CC002B30012B00F0CB8198F8281019F4807E7C
:1012DC00D8F8402000F5806C4FEAC10340F0EE8155
:1012EC00B0F850901FFA89F94B4402333CF813C004
:1012FC00CCF3090C944580F0DA81631C03EB830377
:10130C0005EBC301D8F83C30A2EB0C026344C8F8DF
:10131C003C30D8F84430C8F840206344C8F8443016
:10132C0001F022F92868A8E72968ADF102030C4600
:10133C001A460E460DF10E0036F8047B22F8027F99
:10134C009042F9D1B1F8402092B242F00102A1F8DA
:10135C004020B1F8402022F001021204120CA1F836
:10136C004020B1F844205605FBD5B1F8442022F4B6
:10137C0080621204120CA1F8442033F8022F984218
:10138C0024F8042BF9D1B1F8403028469BB243F035
:10139C000803A1F84030B1F8443023F400631B0477
:1013AC001B0CA1F84430B1F840309BB243F004035D
:1013BC00A1F84030FFF7AAFD46E730F824300AEBDD
:1013CC0004013B4043F0800320F8243005EBC101BD
:1013DC0091F8743100F58062002B7ED1B0F850305A
:1013EC0091F868C19BB2063303EBCC0332F813803F
:1013FC00C8F30908B8F1000F40F013824FF0000851
:10140C000AEB040205EBC203D100D3F88421424459
:10141C00C3F88421D3F87C214244C3F87C21D3F84F
:10142C00802122B1D3F87831434540F2C1810AEBD7
:10143C00040305EBC303284693F86811FFF73CFD42
:10144C0028682DE703889BB2334043F400430380A4
:10145C00B0F8503095F828209BB203EBC20300EB98
:10146C004303B3F80434EA6BC3F309031A446B6403
:10147C002846EA63FFF72AFD95F824305BB32B6C02
:10148C002868002B7FF4F9AE95F8242042F08002F6
:10149C00A0F84C2085F82430EFE6B0F8503095F8E1
:1014AC0068219BB203EBC20300EB4303B3F80C348B
:1014BC00B5F86E21C3F30903C5F8843105F52C7119
:1014CC0001F060FB2A68284613883B4043F08003F8
:1014DC001380FFF7E9FC2868CFE691F86B3191F89F
:1014EC0068C1022B00F0EA8130F82C3023F4E04381
:1014FC0023F070031B041B0C43F4004343F0C003A4
:10150C0020F82C3091F868C130F82C3013F4804F4F
:10151C00B0F850309BB200F05381023303EBCC0394
:10152C0032F81380C8F30908B8F1000F3FF466AF26
:10153C00B1F870214346D1F87C1101F023FB5FE731
:10154C002A682846B2F8443023F480631B041B0C31
:10155C00A2F84430FFF7C8FC95F8A832012B3FF4F1
:10156C0073AE01232146286885F8244085F8A832FB
:10157C0001F0E8FA85F8A84205B0BDE8F08F00BF8D
:10158C000F8FFFFF40F68F730288134043F08003E8
:10159C000380B0F8503095F868219BB203EBC2037E
:1015AC0000EB4303B3F80C34C3F30903C5F88431DF
:1015BC0093B1D5F87C1179B1B5F86E2101F0E2FA4E
:1015CC00D5F87C31D5F88421284613442146C5F83A
:1015DC007C31FFF771FC2868038819059AB23FF536
:1015EC004CAE02F44052B2F5405F3FF446AEB0F858
:1015FC00503000F20C419BB2CA5AC2F30902CA52D3
:10160C00D5F878213E2A40F2AF815409D206CA5A45
:10161C0008BF04F1FF3492B242EA84226FEA4242DC
:10162C006FEA524292B2CA52038823F4804323F0E9
:10163C0070031B041B0C83F4405343F4004343F02E
:10164C008003038019E62A68B2F8443023F400536F
:10165C001B041B0CA2F8443005B0BDE8F08F00232E
:10166C0098F83420C8F84030D2B119F0400940F055
:10167C001B8198F82930002B40F0F781B0F85020EE
:10168C0000F20C4392B2134498F828201201D15A5C
:10169C00C1F30901D152D15A89B241F40041D1525E
:1016AC00284698F82810FFF711FC2868E5E528462D
:1016BC00C8F840E0FFF70AFC2868DEE5B0F850E017
:1016CC0009F4804B1FFA8EFE19F04009734400F0A8
:1016DC00B08002333CF81330C3F30903934280F01B
:1016EC009581D21AC8F84020BBF1000F0DD030F80C
:1016FC00212022F4E04222F070021204120C42F477
:10170C00404242F0800220F821200AEB040C05EB49
:10171C00CC0C9CF84C20012A40F0B380DCF83C2027
:10172C00DCF8489002EB030EDCF84420CCF83CE0EB
:10173C001A44CCF84420DCF838209145C0F0828261
:10174C00A9EB0203CCF8483093B298F829C0BCF14D
:10175C00000F40F06982B0F8509000F2044C1FFA70
:10176C0089F90901CC443CF801903E2AC9F30909D6
:10177C002CF8019040F295824FEA5219D2063CF8AF
:10178C00012008BF09F1FF3992B242EA89226FEABF
:10179C0042426FEA524292B22CF801200AEB040248
:1017AC0005EBC2027146128E01F0DCF9286868E084
:1017BC0001F5B4712868294400F0D6FE28686FE55D
:1017CC00063303EBCC0332F81380C8F30908B8F1E5
:1017DC00000F3FF413AEB1F872214346D1F87C11DF
:1017EC0001F0D0F90CE62A682846B2F8403023F014
:1017FC0004031B041B0CA2F84030B2F8403023F059
:10180C0008031B041B0CA2F84030FFF78FFB2A685F
:10181C00B2F8443023F480531B041B0CA2F8443060
:10182C0012E5B1F86E214346D1F87C1101F0AAF90A
:10183C00E6E506333CF81330C3F30903934200F298
:10184C009E80D21AC8F84020002A00F09A80BBF182
:10185C00000F0DD130F8212022F4E04222F070026A
:10186C001204120C42F4404242F0800220F8212073
:10187C000AEB040E05EBCE0E9EF84C20012A00F06C
:10188C008C8198F8282030F8223023F4E04323F0A0
:10189C0040031B041B0C83F0300343F4004343F060
:1018AC00800320F82230E8E498F82920002A40F040
:1018BC00EB80B0F8502000F20443E3E6B0F850306F
:1018CC004FEACC089BB219F4804BD1F880E1434429
:1018DC0000F0E880023332F81330C3F30903734588
:1018EC00984600F25681AEEB0302C1F880217AB91A
:1018FC0030F82C2022F4804222F070021204120CD8
:10190C0082F4005242F4004242F0800220F82C2073
:10191C0019F0400F0DD030F82C2022F4E04222F0C8
:10192C0070021204120C42F4004242F0C00220F881
:10193C002C20002B3FF464AD0AEB040105EBC10134
:10194C00B1F87021D1F87C1101F01CF958E52A6826
:10195C002846B2F8443023F400731B041B0CA2F885
:10196C004430FFF7BDFA6FE4002A40F0D780CA5A22
:10197C006FEA42426FEA524292B2CA5254E6C8F837
:10198C00409098F82930002B40F0D380B0F85030BC
:10199C0000F2044C9BB29C440B013CF8032000F277
:1019AC000C44C2F309022CF803203CF803206FEA24
:1019BC0042426FEA524292B22CF80320B0F8502007
:1019CC0092B2A018C25AC2F30902C252C25A6FEAAA
:1019DC0042426FEA524292B2C2522846FFF776FA5E
:1019EC002868BBF1000F7FF44CAF98F8282030F832
:1019FC00223023F4E04323F070031B041B0C43F44C
:101A0C00404343F0800320F822303AE7002298F854
:101A1C002930C8F84020002B40F0A280B0F850309C
:101A2C0000F204429BB21A440B01D45AC4F30904C9
:101A3C00D452D45AA4B244F40044D452B0F8504016
:101A4C0000F20C42A4B22244D05AC0F30900D05286
:101A5C00D05A80B240F40040D0522846FFF736FAF4
:101A6C002868BBF1000FC0D10BE7012B7FF418AE37
:101A7C00B0F8502000F20C4392B2134498F828208E
:101A8C00120122F803900BE6012A7FF409AEB0F89C
:101A9C00502000F2044192B2114498F8282012010F
:101AAC008B52FDE5063332F81330C3F3090373454B
:101ABC0098466BD8AEEB0302C1F880217AB930F8A6
:101ACC002C2022F4804222F070021204120C82F4B8
:101ADC00005242F4004242F0800220F82C2019F00F
:101AEC00400F0DD130F82C2022F4E04222F070028D
:101AFC001204120C42F4004242F0C00220F82C20D6
:101B0C00002B3FF47DAC0AEB040105EBC101B1F8ED
:101B1C007221D1F87C1101F035F871E45408D20728
:101B2C00CA5A48BF013492B242EA842292B2CA52D3
:101B3C007AE5012B7FF451AF0024B0F8502000F26D
:101B4C00044392B213444FEA011C23F80C40B0F842
:101B5C00502000F20C4392B2134423F80C403CE7A3
:101B6C00012B7FF47AAFB0F8504000F20443A4B2DA
:101B7C0023444FEA011C23F80C20B0F8504000F22B
:101B8C000C43A4B2234423F80C2066E7C1F880B1BF
:101B9C0095E70022C1F88021AAE6DEF83C20DEF8A9
:101BAC00489002EB030CDEF84420CEF83CC01A44FB
:101BBC00CEF84420DEF83820914557D3A9EB020328
:101BCC00CEF8483093B298F829E0BEF1000F40D11E
:101BDC00B0F8509000F20C4E1FFA89F90901CE446E
:101BEC003EF801903E2AC9F309092EF8019063D9F9
:101BFC004FEA5219D2063EF8012008BF09F1FF390D
:101C0C0092B242EA89226FEA42426FEA524292B29F
:101C1C002EF801200AEB040205EBC2026146528E3B
:101C2C0000F0A0FF28682CE6BCF1010F7FF4B6ADE4
:101C3C00B0F850C000F204421FFA8CFC0901624457
:101C4C005352ABE5B9F1000F17D11A468CF84C90F2
:101C5C007BE5BEF1010FDDD1B0F850E000F20C4293
:101C6C001FFA8EFE090172445352D3E7B9F1000FEB
:101C7C000DD11A468EF84C90A5E74FF0000B4A4652
:101C8C001FFA89F38CF84CB0CCF848B05DE54FF0F6
:101C9C00000B4A461FFA89F3CEF848B08EF84CB0C8
:101CAC0091E7A2B93CF801206FEA42426FEA524236
:101CBC0092B22CF8012071E5C2B93EF801206FEA0E
:101CCC0042426FEA524292B22EF80120A2E74FEA4A
:101CDC005209D2073CF8012048BF09F1010992B220
:101CEC0042EA892292B22CF8012057E54FEA5209B8
:101CFC00D2073EF8012048BF09F1010992B242EA2D
:101D0C00892292B22EF8012084E700BF90F8A82215
:101D1C00012A0ED010B501220446006884F8241064
:101D2C0084F8A82200F00EFF002384F8A83218468D
:101D3C0010BD0220704700BF01F0070C090610B55A
:101D4C00044622D44FF0000E0CEB8C00C00000F5C2
:101D5C00B471204480F869E12144022BCB7008BF98
:101D6C00002381F800C008BF0B710A6194F8A832F7
:101D7C00012B13D00123206884F8A83200F04AF913
:101D8C00002384F8A832184610BD0CF1010101EBB8
:101D9C00810100EBC10101204870DEE7022010BD7B
:101DAC000B0610B501F00702044619D402EB8203AE
:101DBC00DB0003F5B47101440344002083F869018E
:101DCC000A7094F8A832012B16D00123206884F8ED
:101DDC00A83200F0E7FA002384F8A832184610BDA8
:101DEC000123D11801EB810100EBC1014B700A708A
:101DFC0094F8A832012BE8D1022010BD10B50024B4
:101E0C0001F0070E0EEB8E0100EBC10CCCE95F2349
:101E1C0000680CF5B471CCF884418CF869418CF8ED
:101E2C0068E100F0A1FB204610BD00BF01F00701E6
:101E3C0001EB810100EBC100D0F88401704700BFB9
:101E4C0070B501260025044601F0070E0EEB8E0C32
:101E5C000EEB060100EBCC0C01EB8101CCF83C2025
:101E6C008CF828E0CCF84030CCF848308CF84C603A
:101E7C00CCF844508CF8296004EBC101006800F0E8
:101E8C0073FB284670BD00BF38B5436801F00705E9
:101E9C009D422ED80B0604461BD401EB8101C900D0
:101EAC0001F5B47243188118002283F869210123CB
:101EBC000D708B7094F8A8229A4218D0206884F880
:101ECC00A83200F0C7FDB5B1002384F8A83218463B
:101EDC0038BD0123E91801EB810100EBC1014B7006
:101EEC0001230D708B7094F8A8229A42E6D102203F
:101EFC0038BD012038BD206804F52C7100F030FE8F
:101F0C00E2E700BF38B5436801F00F029A422FD8C0
:101F1C000B06044601F007021AD402EB8203DB0025
:101F2C0003F5B471014403440025002083F86901D2
:101F3C000A708D7094F8A832012B17D001232068F9
:101F4C0084F8A83200F0AEFD84F8A852284638BDBB
:101F5C0001230025D11801EB810100EBC1014B706D
:101F6C000A708D7094F8A832012BE7D1022038BD8D
:101F7C00012038BD11F0800F0CD001F007010131A8
:101F8C0001EB810100EBC10099B262B9C18002730F
:101F9C000020704701EB810100EBC10000F5B4702B
:101FAC0099B2002AF2D0012283600273002070479C
:101FBC0084B001A880E80E0004B00020704700BF78
:101FCC00034600224FF43F41A3F844201046A3F8E7
:101FDC0040107047034644F2FF02B3F84010002053
:101FEC000A40A3F8402070470020704784B00DF1E0
:101FFC00040C8CE80E000346002201211046A3F8C5
:10200C00401004B0A3F84020A3F84420A3F85020BB
:10201C00704700BF70B50A78034630F8220091F87B
:10202C0003E020F4EC4020F070000004000CBEF142
:10203C00030F00F29E81DFE80EF0CFD2860240F44F
:10204C00C06048F2800C40EA0C0023F8220033F800
:10205C00220020F4E04020F070000004000C10433B
:10206C004CEA000C23F822C0087B00287DD000200D
:10207C0033F822C02CF4E24C2CF0700C4FEA0C4CD0
:10208C004FEA1C4C4CF4004C4CF0800C23F822C052
:10209C00B3F85040B1F808C003EB0215A4B24FEAF4
:1020AC005C0C4FEA4C0C2C44A4F800C44C89B3F8DB
:1020BC0050C064081FFA8CFCAC446400ACF80844B3
:1020CC004978002940F0E18033F822104E040DD5F8
:1020DC0033F8221021F4E04121F070010904090CBD
:1020EC0041F4404141F0800123F8221033F82210D2
:1020FC004D060DD533F8221021F4E04121F070018A
:10210C000904090C41F4004141F0C00123F82210EC
:10211C0048F2800433F8221021F4804121F0700140
:10212C000904090C81F44051214323F8221033F89F
:10213C00221021F4E04121F040010904090C0C4368
:10214C0023F8224070BD48F28004204323F822007B
:10215C0033F82200924D80B228401043044323F8F8
:10216C002240087B002840F0EA800020CC884E7882
:10217C006408640003EB0215002E44D0B3F8501031
:10218C0089B22944A1F8004433F8221049060DD530
:10219C0033F8221021F4E04121F070010904090CFC
:1021AC0041F4004141F0C00123F8221033F8221011
:1021BC00BEF1010F21F4E04121F040014FEA014151
:1021CC004FEA114118D081F0200141F4004141F057
:1021DC00800123F8221070BD40F4007031E740F408
:1021EC0080602EE733F8221021F4804121F0700139
:1021FC000904090C81F4005141F4004141F08001C3
:10220C0023F8221070BD0E69B3F850103E2E89B21F
:10221C002944A1F80844B3F8501089B22944B1F804
:10222C000C44C4F30904A1F80C4476D8002E40F0F9
:10223C009280B1F80C446FEA44446FEA5444A4B25F
:10224C00A1F80C4433F8221049040DD533F82210B0
:10225C0021F4E04121F070010904090C41F44041E2
:10226C0041F0800123F82210002ABBD11A8822F4F5
:10227C00804222F070021204120C82F4405242F49A
:10228C00004242F080021A8070BD33F822104C04D8
:10229C000DD533F8221021F4E04121F0700109042E
:1022AC00090C41F4404141F0800123F8221033F82D
:1022BC00221049060DD533F8221021F4E04121F00B
:1022CC0070010904090C41F4004141F0C00123F8EC
:1022DC00221033F82210BEF1010F21F4E04121F05D
:1022EC0040014FEA01414FEA114118BF81F0200132
:1022FC0041F4004141F0800123F8221033F8221000
:10230C0021F4804121F070010904090C41F40041D1
:10231C0041F0800123F8221070BDB1F80C4475090E
:10232C00F60608BF05F1FF35A4B244EA85246FEA2E
:10233C0044446FEA5444A4B2A1F80C4482E733F845
:10234C00220080B2284040F4014040F0800023F885
:10235C00220000209CE6F407B1F80C444FEA560525
:10236C0048BF0135A4B244EA8524A4B2A1F80C44B8
:10237C0068E748F28004204323F8220033F8220057
:10238C0020F4E04020F070000004000C10430443E3
:10239C0023F82240087B08B90120E7E6012067E614
:1023AC008F8FFFFF10B40C7B4A780B78C4B9002ACE
:1023BC0000F0B28030F82320540600F1C68030F8CB
:1023CC00232022F4E04222F040021204120C42F4C8
:1023DC00004242F0800220F8232010BC00207047FD
:1023EC00002A4CD130F8232052040DD530F823208C
:1023FC0022F4E04222F070021204120C42F4404229
:10240C0042F0800220F8232030F8232054060DD50A
:10241C0030F8232022F4E04222F070021204120C55
:10242C0042F4004242F0C00220F8232048F280011E
:10243C0030F8232010BC22F4E04222F07002120487
:10244C00120C42F4004242F0C00220F8232030F873
:10245C00232022F4804222F070021204120C0A4350
:10246C0020F8232030F8232022F4E04222F040020E
:10247C001204120C114320F823100020704730F87E
:10248C00232051040DD530F8232022F4E04222F011
:10249C0070021204120C42F4404242F0800220F806
:1024AC00232030F8232052060DD530F8232022F4B7
:1024BC00E04222F070021204120C42F4004242F08C
:1024CC00C00220F8232048F2800130F8232010BCF1
:1024DC0022F4E04222F070021204120C42F4404248
:1024EC0042F0800220F8232030F8232022F4E0422E
:1024FC0022F040021204120C0A4320F8232030F878
:10250C00232022F4804222F070021204120C114398
:10251C0020F823100020704730F8232051040DD5EB
:10252C0030F8232022F4E04222F070021204120C44
:10253C0042F4404242F0800220F8232030F823205D
:10254C0022F4804222F070023FE730F8232022F47C
:10255C00E04222F070021204120C42F4004242F0EB
:10256C00C00220F823202AE72DE9F04F4B780C7B92
:10257C00012B83B074D0002C3ED0CA78022A00F014
:10258C004A81012A40F0BA808A690C69A24294BF40
:10259C000025151B8D6188BF2246002B40F01E8143
:1025AC00B0F850400B78A4B200F204451B0125444E
:1025BC00EC5A3E2AC4F30904EC5200F20C4600F229
:1025CC00B281002A40F0F480EA5A6FEA42426FEA84
:1025DC00524292B2EA52B0F8502092B23244D45ADB
:1025EC00C4F30904D452D45A6FEA44446FEA5444F5
:1025FC00A4B2D4520A781FE08D690B690A789D4207
:10260C0084BFEC1A1D46B0F850308C619BB200F2BE
:10261C000C4412011C44A35A3E2DC3F30903A352CC
:10262C0062D8002D40F04181A35A6FEA43436FEA10
:10263C0053439BB2A3520A7830F8223023F48043E0
:10264C0023F070031B041B0C83F4405343F400432E
:10265C0043F0800320F82230002003B0BDE8F08F57
:10266C000E698A694B69B24228BF324600F5806C0C
:10267C00002C00F0B580CD7891F800E0022D0C6AAA
:10268C004FEA0E173ED030F82E50A41AB0F8506016
:10269C000C6294B201346D0692B24FEA5404B6B295
:1026AC0040F1108100F20C453544EA534A890CEB99
:1026BC0042023CB102EB840533F8024B22F8044B86
:1026CC009542F9D10A7830F8223023F4E04323F014
:1026DC0040031B041B0C83F0300343F4004343F012
:1026EC00800320F82230B7E7A35A6E09ED0608BF25
:1026FC0006F1FF369BB243EA862396E7012003B02E
:10270C00BDE8F08FA64200F2044B80F0598130F8FE
:10271C002E50A41A25F4E04525F070052D042D0C3F
:10272C0045F4014545F0800520F82E5030F82EE098
:10273C0095B21EF0400FB0F850E005F101050C62A7
:10274C004FEA55051FFA82F900F20C4A1FFA8EFE69
:10275C0000F00881D6442EF80790B1F80AE00CEB93
:10276C004E0E55B198460EEB850A019638F8026B61
:10277C002EF8046BF245F9D1019E1344A6424B612D
:10278C0080F05A81A21A0A62B0F8502092B25A44D0
:10279C0022F807900A890CEB4202002D92D002EB32
:1027AC00850533F8024B22F8044B9542F9D189E7A1
:1027BC005408D20748BF0134A202EC5A92B2A4B218
:1027CC001443EC52B0F85040A4B23444E55AC5F36B
:1027DC000905E552E55AADB22A43E2520A782BE7D5
:1027EC0096B2CC88013676080CEB440492B218BF32
:1027FC0003EB460605D033F8025B9E4224F8045BDB
:10280C00F9D1B0F850500C78ADB200F20443240169
:10281C002B44E25256E74BBBB0F850400B78A4B2B5
:10282C0000F204421B012244D45A0D69C4F309047A
:10283C003E2DD45200F20C4657D8002D40F0E580C6
:10284C00D45A6FEA44446FEA5444A4B2D452B0F858
:10285C00502092B23244D45AC4F30904D452D45AFC
:10286C006FEA44446FEA5444A4B2D452CB69002BAF
:10287C00B4D044F240030A7830F8224003EA04054D
:10288C00A34302D0002D7FF4D7AE30F8223023F4CE
:10289C00E04323F070031B041B0C43F4004343F090
:1028AC00C00320F822300A78C6E6EB07A35A4FEA99
:1028BC00550648BF01369BB243EA86239BB2A3520E
:1028CC000A78B9E600F204453544EA530A890CEB60
:1028DC00420C002C3FF4F6AE03EB440433F8022B0D
:1028EC009C422CF8042BF9D1ECE66C09EF0608BFDE
:1028FC0004F1FF34D55AA402A4B2ADB2254345F479
:10290C000045D552B0F85050ADB23544EA5AC2F336
:10291C000902EA52EA5A22436FEA42426FEA5242F1
:10292C0092B2EA52A2E75409D70608BF04F1FF3469
:10293C00A202EC5A92B2A4B2144344F40044EC52F6
:10294C00B0F85040A4B23444E55AC5F30905E55239
:10295C00E55A2A436FEA42426FEA524292B2E2527D
:10296C000A7869E6DE442EF80790B1F808E00CEB23
:10297C004E0E55B198460EEB850B019638F8026B4E
:10298C002EF8046BF345F9D1019E1344A6424B611A
:10299C0059D2A41AB0F850200C6292B2524422F8C8
:1029AC0007904A890CEB4202002D3FF48BAE03EBEF
:1029BC00450533F8024B9D4222F8044BF9D181E6D0
:1029CC00A5B22C4630F82E20013422F4E24222F03B
:1029DC0070021204120C42F4004242F0800220F801
:1029EC002E20B0F85020640892B25A44D5530A896C
:1029FC000CEB42023FF466AE03EB440533F8024B9A
:102A0C009D4222F8044BF9D15CE66C08ED0748BFF7
:102A1C000134D55AA402A4B2ADB22543D552B0F8B4
:102A2C00502092B23244D55AC5F30905D552D55A25
:102A3C00ADB22C43D45219E7A5B2013500221FFACE
:102A4C0084F96D089FE6A5B201351FFA84F96D086B
:102A5C0000249FE74B780A788BB130F8223023F4AE
:102A6C00E04323F040031B041B0C83F0100343F4DE
:102A7C00004343F0800320F822300020704730F8E8
:102A8C00223023F4804323F070031B041B0C83F4CB
:102A9C00805343F4004343F0800320F8223000209D
:102AAC00704700BF0B7B3BBB4B780A7833B330F8D5
:102ABC0022305B060DD530F8223023F4E04323F0AE
:102ACC0070031B041B0C43F4004343F0C00320F8B9
:102ADC002230CB78012B0FD030F8223023F4E04396
:102AEC0023F040031B041B0C83F0200343F400432E
:102AFC0043F0800320F822300020704730F8223059
:102B0C005B040DD530F8223023F4E04323F070033E
:102B1C001B041B0C43F4404343F0800320F8223089
:102B2C0030F8223023F4804323F070031B041B0C79
:102B3C0083F4405343F4004343F0800320F82230E5
:102B4C000020704711B98023A0F84C30002070474A
:102B5C000020704700207047B0F8440080B27047E6
:102B6C0000207047013300EB42005B0800F58060E9
:102B7C0007D000EB830231F8023B20F8043B824281
:102B8C00F9D1704770B500EB42005E0800F5806526
:102B9C0014D02846B64601F1020C30F8042B0CF187
:102BAC00020C92B2140ABEF1010E0CF8042C0CF8B3
:102BBC00034CF2D101EB460105EB8605DB0744BF64
:102BCC002B880B7070BD00BF38B54FF47A730D4A6B
:102BDC00054611780C4AB3FBF1F31268B2FBF3F023
:102BEC0000F0D4FC08B90F2D01D9012038BD0446E2
:102BFC00024629464FF0FF3000F07EFC034B204686
:102C0C001D6038BD600000206800002064000020BA
:102C1C00074A08B51368032043F01003136000F053
:102C2C0059FC0F20FFF7D0FFFDF7D4FF002008BDA3
:102C3C0000200240034A044B11681B780B441360BC
:102C4C00704700BF0814002060000020014B18687A
:102C5C00704700BF08140020002800F0E4812DE923
:102C6C00F04103680446DD0782B035D599494A68BE
:102C7C0002F00C02042A00F0ED804A6802F00C020B
:102C8C00082A00F0E3806368B3F5803F10D0002B76
:102C9C0000F00A81B3F5A02F00F080818D4B1A68EB
:102CAC0022F480321A601A6822F480221A6004E03E
:102CBC00884A136843F480331360FFF7C7FF854ECF
:102CCC00054605E0FFF7C2FF401B642800F2E880D0
:102CDC0033689A03F6D523689F0728D57D4A516837
:102CEC0011F00C0F00F09680516801F00C010829CE
:102CFC0000F08C802369002B00F016810122764BAA
:102D0C00744E1A60FFF7A2FF054605E0FFF79EFF21
:102D1C00401B022800F2C48033689807F6D533684C
:102D2C00626923F0F80343EAC203336023681A078D
:102D3C0029D45D074BD5674BDA69D00000F184804C
:102D4C000125DA6942F08052DA61DB6903F08053C5
:102D5C000093009B614E3368D90540F19180E36884
:102D6C00012B00F0F280002B00F0BE80052B594B9C
:102D7C001A6A00F0208122F001021A621A6A22F00B
:102D8C0004021A62E6E0A369002B4CD00122524BDC
:102D9C00504EC3F88024FFF759FF054604E0FFF7B7
:102DAC0055FF401B02287BD8736A9B07F7D54C4B09
:102DBC004C4A1B68A2FB03235B0A019300BF019BD7
:102DCC005A1E0192002BF9D123685D07B3D4E36935
:102DDC00C3B1404D6A6802F00C02082A00F0CD80A5
:102DEC000022022B3C4B1A6600F0ED80FFF72EFF01
:102DFC00044604E0FFF72AFF001B022850D82B687A
:102E0C009B01F7D4002002B0BDE8F0815268D603D4
:102E1C003FF570AF2F4A1268950725D52269012A14
:102E2C0022D00120EFE72C4A2A4EC2F88034FFF75B
:102E3C000DFF054604E0FFF709FF401B02282FD8C1
:102E4C00736A9F07F7D4BFE7002583E74A68D0036E
:102E5C007FF519AF1F4A126891037FF53DAF626889
:102E6C00002A7FF439AFDCE71A4960690A6822F05E
:102E7C00F80242EAC0020A601A077FF55AAF82E7ED
:102E8C00336843F480733360FFF7E0FE0746336822
:102E9C00DA053FF564AFFFF7D9FEC01B6428F6D9FD
:102EAC00032002B0BDE8F0810A4D2B6823F4803377
:102EBC002B602B6823F480232B60FFF7C7FE06469C
:102ECC0004E0FFF7C3FE801B6428E9D82B689B0342
:102EDC00F7D400E7001002400000424200700040AE
:102EEC0068000020D34D6210504E41F28838336A8E
:102EFC0023F001033362336A23F004033362FFF7D8
:102F0C00A5FE074604E0FFF7A1FEC01B4045C7D84D
:102F1C00336A9807F7D4002D3FF459AF434AD3696D
:102F2C0023F08053D36152E7414A404E1360FFF7C0
:102F3C008DFE054604E0FFF789FE401B0228AFD842
:102F4C0033689907F7D42368F1E6384A136A43F0DB
:102F5C0001031362FFF77AFE41F288380646334FBD
:102F6C0004E0FFF773FE801B404599D83B6A9B0732
:102F7C00F7D5002D3FF42BAFD0E7012B3FF451AF29
:102F8C006B68226A03F4803191427FF44AAF606A25
:102F9C0003F47013181A18BF012034E703F18043AF
:102FAC00A3F53C331A6842F480221A601A6842F482
:102FBC0080321A6081E642F004021A621A6A42F008
:102FCC0001021A62C6E7FFF741FE064605E0FFF76D
:102FDC003DFE801B02283FF663AF2B689901F6D4A7
:102FEC00236AB3F5803F05D16A68A16822F40032E8
:102FFC000A436A6001200D4D616A6A680B4322F432
:10300C0074120B4913436B600866FFF71FFE0446EE
:10301C0005E0FFF71BFE001B02283FF641AF2B68B3
:10302C009A01F6D5EEE60120704700BF0010024071
:10303C00000042420E4A536803F00C01082901D0EB
:10304C000C4870470C48C3F38341DB03405C0AD542
:10305C000849536801FB00F0084AC3F34043D35CB2
:10306C00B0FBF3F07047064B03FB00F0704700BF5A
:10307C000010024000127A000448000800480008C2
:10308C0000093D00002800F08C80494A2DE9F041F0
:10309C001368044603F007038B420D460CD21368E9
:1030AC0023F007030B431360136803F007038B42F1
:1030BC0002D00120BDE8F0812368980714D5590788
:1030CC0004D53C494A6842F4E0624A601A0704D5C8
:1030DC0038494A6842F460524A603649A0684A68E6
:1030EC0022F0F00202434A60DF0720D56268314BC0
:1030FC00012A1B6857D0022A50D09907D9D52D4EDA
:10310C0041F28838736823F0030313437360FFF7AD
:10311C009DFD074604E0FFF799FDC01B404545D8CF
:10312C007368626803F00C03B3EB820FF3D1204A8F
:10313C00136803F00703AB4209D9136823F00703A4
:10314C002B431360136803F00703AB42B1D1236820
:10315C005A0706D51749E0684A6822F4E062024330
:10316C004A601B0707D5134A2169536823F460533F
:10317C0043EAC1035360FFF75DFF03460D4A0E4956
:10318C0052680E48C2F30312895C0D4ACB400068AA
:10319C001360FFF719FD0020BDE8F0819801AED453
:1031AC0087E7012070479E03A9D482E7032081E7BB
:1031BC000020024000100240144800086400002067
:1031CC00680000202DE9F04103680446D80782B05E
:1031DC002CD5394BDA69D1003FD5384D00262B68F8
:1031EC00DA0548D5344D61682B6A13F4407311D05D
:1031FC0001F440729A420DD0002001272B6A304A0C
:10320C0023F44071C2F84074C2F84004D807296214
:10321C0044D46168284A136A23F440730B43136245
:10322C001EB1D36923F08053D36123689A0706D566
:10323C002149A0684A6822F4404202434A60DB06F6
:10324C0003D4002002B0BDE8F0811B4AE16853684A
:10325C0023F480030B435360F3E7DA69174D42F014
:10326C008052DA61DB69012603F080530193019BE4
:10327C002B68DA05B6D42B6843F480732B60FFF708
:10328C00E5FC07462B68DB05ACD4FFF7DFFCC31B62
:10329C00642BF7D9032002B0BDE8F081FFF7D6FC10
:1032AC0041F2883807462B6A9907B2D4FFF7CEFC57
:1032BC00C01B4045F7D9EDE70010024000700040FC
:1032CC00000042422DE9F04F0C6885B0002C00F054
:1032DC00A4800022031D019301254FF00F08924694
:1032EC0013468146744F06E0013334FA03F002F1C1
:1032FC00040200F0928005FA03F030EA040C00EAB4
:10330C000406F1D14C68122C00F28F80122C0DD8CF
:10331C00DFE804F09D0AA9CF0C0C0C0C0C0C0C0C67
:10332C000C0C0C0C0CB1AD00D1F80CA0FF2E99BFFD
:10333C004C469446019CA2F1200C206808FA0CFE25
:10334C0020EA0E000AFA0CFC40EA0C0020604C68E3
:10335C00E00068D5B86923F0030C40F00100B861B7
:10336C00B8690CF1804C00F0010003900CF5803C26
:10337C0003F0030E03984FEA8E0EDCF8080008FAEF
:10338C000EFB20EA0B00DFF834B1D94513D00BF556
:10339C00806BD94573D0DFF828B1D9455CD0DFF804
:1033AC0024B1D9450CBF4FF0030B4FF0040B0BFAB3
:1033BC000EFB40EA0B00CCF80800DFF80CC114F44B
:1033CC00801FDCF8080014BF3043B043CCF8080071
:1033DC00DFF8F4C014F4001FDCF80C0014BF304309
:1033EC00B043CCF80C00DFF8E0C014F4003FDCF87C
:1033FC00040014BF3043B04314F4803F324CCCF87B
:10340C00040020680CD0304320600C68013334FA7F
:10341C0003F002F104027FF46EAF05B0BDE8F08F4B
:10342C0020EA060020600C685EE7DFF8A0C0644567
:10343C000DD02BD8ACF5801C644508D00CF5702C45
:10344C00644504D0ACF5801C64457FF46FAF8C6888
:10345C0034BB4FF0040A69E74FF0020B0BFA0EFB7A
:10346C0040EA0B00A7E7C86800F1080A5EE7C868E5
:10347C0000F10C0A5AE7C86800F1040A56E74FF04D
:10348C00010B0BFA0EFB40EA0B0094E7DFF840C08F
:10349C006445DCD00CF5803C64457FF447AFD6E73F
:1034AC00012C4FF0080A0CBFC9F81000C9F8140021
:1034BC003CE74FF0000A39E70010024000080140D9
:1034CC0000100140001401400004014000002210D3
:1034DC00000031104FF6FF0C06490302CA6803F4D2
:1034EC00E06302EA0C02134343F0BF6343F400337E
:1034FC00CB60704700ED00E01B4B00B5DB68C3F3FD
:10350C000223C3F1070EBEF1040F03F1040C28BF14
:10351C004FF0040EBCF1060F1CD9A3F1030C4FF0B5
:10352C00FF3303FA0CF322EA03024FF0FF3303FAE2
:10353C000EF321EA030303FA0CF313431B010028D7
:10354C00DBB20ADB00F1604000F5614080F800332B
:10355C005DF804FB00229446E7E7044A00F00F00F4
:10356C00024413765DF804FB00ED00E0FCEC00E097
:10357C00002807DB012300F01F01034A40098B40A0
:10358C0042F82030704700BF00E100E00138B0F194
:10359C00807F01D3012070474FF0E0234FF0F00CF7
:1035AC000022072110B4044C586184F823C0104643
:1035BC009A6110BC1961704700ED00E0036A026A61
:1035CC0070B422F001020262446882690E680F4DE9
:1035DC0022F0730232438E6823F00203A84243EABE
:1035EC00060306D049684460826170BC4163036283
:1035FC007047CD6823F008032B4324F44074D1E9C1
:10360C000556354323F004032C43EBE7002C014013
:10361C00036A026A70B422F4807202624468C2695E
:10362C000E68104D22F0730232438E6823F400733F
:10363C00A84243EA062306D049684460C26170BCC4
:10364C00C16303627047CD6823F4006343EA05232A
:10365C0024F44054D1E90556354323F4806344EAFD
:10366C000514E9E7002C0140036A026A30B422F425
:10367C00805202624468C269D1F800C00C4D22F439
:10368C00E64242EA0C22D1F808C023F40053A842C7
:10369C0043EA0C3306D049684460C26130BC016413
:1036AC00036270474D6924F4804444EA8514F2E7C0
:1036BC00002C014039BB90F83E30012B2BD102235A
:1036CC0080F83E300122036801F01F01186A8A401D
:1036DC0020EA020010B41862196A204C0A43A34273
:1036EC001A621AD0B3F1804F1BD01D4A934218D0E6
:1036FC0002F58062934214D01A68002042F0010255
:10370C0010BC1A607047042917D008291DD090F8F6
:10371C004130012B0DD0012070475A6C42F400420D
:10372C005A649A6802F00702062AE5D1002010BC00
:10373C007047022380F84130C4E790F83F30012BEA
:10374C00E9D1022380F83F30BCE790F84030012BE0
:10375C00E1D1022380F84030B4E700BF002C0140D7
:10376C0000040040704700BFFFF7A4BF90F83C2056
:10377C00012A6ED0034630B4012002241A6883F863
:10378C003C0083F83D40946824F47F4424F0770493
:10379C0094600C68602C76D011D8402C5BD02ED85D
:1037AC00202C04D000F2888034F010011FD19168D5
:1037BC0021F07001214341F00701916016E0B4F54E
:1037CC00805F13D0B4F5005F33D0702C0FD1D1E9EA
:1037DC00015094682843CD6824F47F4140EA0520C9
:1037EC0008439060916841F07701916000200121BD
:1037FC00002283F83D1083F83C2030BC7047502CDD
:10380C00F5D14868CC68116A21F00A010843116AA5
:10381C0021F001011162916921F0F00141EA0411DA
:10382C0091611062916821F0700141F05701916033
:10383C00DCE7D1E9015094682843CD6824F47F413A
:10384C0040EA052008439060916841F48041916002
:10385C00CCE7022070474868CC68116A21F00A0155
:10386C000843116A21F001011162916921F0F00104
:10387C0041EA041191611062916821F0700141F0EC
:10388C0047019160B2E74868CC68116A21F0A00149
:10389C0041EA0011106A20F010001062906920F4C7
:1038AC00704040EA043090611162916821F070011F
:1038BC0041F06701916099E7302C3FF478AF96E7BF
:1038CC00244A30B4904203682CD0B0F1804F14D00D
:1038DC00A2F59432904210D002F5806290420CD046
:1038EC004D6923F080032B438C680A680360012325
:1038FC00C462826230BC436170474A6823F0700333
:10390C00CC68134323F440734A69234323F08003A8
:10391C0013438C680A6803600123C462826230BC62
:10392C00436170474C6823F07003CA68234323F447
:10393C00407313434A6923F08003134303608B687D
:10394C0030BCC3620B6883620B6903630123436160
:10395C00704700BF002C014050B310B590F83D30BB
:10396C00044603F0FF02F3B10223214684F83D30F4
:10397C0051F8040BFFF7A4FF012384F8463084F8B8
:10398C003E3084F83F3084F8403084F8413084F87D
:10399C00423084F8433084F8443084F8453084F85D
:1039AC003D30002010BD80F83C20FCF78BFFDBE79E
:1039BC000120704750B310B590F83D30044603F029
:1039CC00FF02F3B10223214684F83D3051F8040B79
:1039DC00FFF776FF012384F8463084F83E3084F8F4
:1039EC003F3084F8403084F8413084F8423084F819
:1039FC00433084F8443084F8453084F83D3000205E
:103A0C0010BD80F83C20FFF7ADFEDBE701207047CE
:103A1C00036A026A70B422F010020262446882697E
:103A2C000E68114D22F4E64242EA06228E6823F01B
:103A3C002003A84243EA061306D049684460826119
:103A4C0070BC816303627047CD6823F0800343EA46
:103A5C00051324F44064D1E90556354323F04003A3
:103A6C0044EA8504E9E700BF002C014038B590F822
:103A7C003C30012B57D0012304460D4680F83C30D6
:103A8C000C2A08D8DFE802F01E0707072E070707E5
:103A9C003F0707070C000120002384F83C3038BD99
:103AAC000068FFF7E1FDC3692A6943F40063C36151
:103ABC00C36923F48063C361C36943EA0223C3610E
:103ACC000020E9E70068FFF779FD83692A6943F074
:103ADC0008038361836923F00403836183691343BF
:103AEC008361EDE70068FFF793FF83692A6943F46C
:103AFC0000638361836923F480638361836943EA90
:103B0C0002238361DCE70068FFF782FDC3692A6941
:103B1C0043F00803C361C36923F00403C361C369A1
:103B2C001343C361CCE7022038BD00BF90F83C20A2
:103B3C00012A27D0034602201A6830B483F83D00CE
:103B4C0050680C68104D20F070002043AA42946815
:103B5C00506009D0B2F1804F06D00C48824203D09D
:103B6C0000F58060824204D1496824F080040C4343
:103B7C0094600022012183F83C2083F83D1010460C
:103B8C0030BC704702207047002C014000040040FC
:103B9C0090F83C30012B23D00246D1E902034FF0C0
:103BAC00000C23F440730343486823F480630343FD
:103BBC00086823F400630343086923F4805310B4AA
:103BCC0003434C6923F40053C8692343116823F45D
:103BDC00804303434B6482F83CC0604610BC704782
:103BEC0002207047704700BF88B108B5D0F8B432D6
:103BFC0013B10023C0F8B43209B1C0F8B0120123DC
:103C0C00027080F89C32FDF795F9002008BD022067
:103C1C00704700BF034619B10020C3F8B4127047B7
:103C2C000220704708B5FDF7CBF9002008BD00BF96
:103C3C0008B5D0F8B43233B11B689847003818BFB8
:103C4C000120400008BD022008BD00BF08B5D0F817
:103C5C00B4325B689847002008BD00BF38B50446F5
:103C6C0000F52A75284600F051FB012394F8A812A0
:103C7C00B4F8AE22C4F8943201F01F03012BC4F83F
:103C8C0098220ED0022B06D08BB92946204600F084
:103C9C00FDF8002038BD2946204600F09DFA002092
:103CAC0038BD2946204600F063FA002038BD204676
:103CBC0001F08001FDF7AAF9002038BD10B50446CB
:103CCC0059B99446D0F89422032A13D0052A0DD161
:103CDC00C4F89412FDF79AF908E0D0F8B4329B6955
:103CEC0033B190F89C22032A02D19847002010BDD2
:103CFC00022010BDD0E9583293420AD99B1A9A423D
:103D0C006146C0F860318CBF9AB292B200F064FB8D
:103D1C00ECE7D0F8B4321B691BB190F89C22032A53
:103D2C0003D0204600F062FBE0E79847F9E700BFBC
:103D3C0070B5044691B9D0F89432022B1BD033F0F5
:103D4C00040302D18021FDF761F994F8A032012B14
:103D5C0002D1002384F8A032002070BDD0F8B43218
:103D6C005B6933B190F89C22032A02D1984700205A
:103D7C00F3E7022070BDD0E90836B34227D8C369F7
:103D8C00B3FBF6F506FB15358DB99E420FD8D0F86E
:103D9C00982293420BD22A4600F006FB2B462A4669
:103DAC0029462046C4F89852FDF774F9CDE7D4F8AB
:103DBC00B432DB681BB194F89C22032A15D0802105
:103DCC002046FDF723F9204600F01CFBBDE70D460D
:103DDC009B1B114603629AB200F0E6FA2B462A4668
:103DEC0029462046FDF756F9AFE720469847E6E707
:103DFC00002270B504464026012511464023FDF7EC
:103E0C00EBF88021334600222046C4F85851C4F800
:103E1C006461FDF7E1F80021D4F8B832A56166625F
:103E2C0084F89C52C4F894126160C4F8A41223B1B3
:103E3C00D4F8B43220465B689847002070BD00BFB0
:103E4C0003460020197470470346042193F89C2202
:103E5C00002083F89C1283F89D22704790F89C32C6
:103E6C00042B04BF90F89D3280F89C3200207047E0
:103E7C0090F89C22032A01D00020704708B5D0F896
:103E8C00B432DB6903B19847002008BD30B50B781C
:103E9C000D4603F06003202B044683B028D0402B42
:103EAC0026D053B180212046FDF7B0F800212046E2
:103EBC00FDF7ACF8002003B030BD4B78092BF1D8DE
:103ECC0001A252F823F000BF413F0008693F0008EF
:103EDC00B13E0008873F0008B13E00088F3F000844
:103EEC00C93F0008B13E0008FD3F00080F3F000825
:103EFC00D4F8B432294620469B689847002003B07A
:103F0C0030BD8978994D01292970CBD890F89C3215
:103F1C00022B00F00B81032B00F0F9808021FDF7C0
:103F2C0075F800212046FDF771F820462978FFF737
:103F3C008DFEBFE790F89C32013B022BB2D8CA88A9
:103F4C00022AAFD1D0F8A4320146002B0CBF0123BA
:103F5C00032341F80C3F00F019FAABE790F89C32C0
:103F6C00013B022B9ED84B88012BA3D1002320466A
:103F7C00C4F8A43200F03AFA9CE74B88012B99D193
:103F8C00F5E78B88002B8DD1CB88002B8AD14B8801
:103F9C007F2B87D890F89C22032A83D0DDB2294648
:103FAC0080F89E52FDF75EF8204600F01FFA002DB7
:103FBC0000F0D780022384F89C327BE700216A88CA
:103FCC00ADF80610130A013B062B3FF66BAF01A1AF
:103FDC0051F823F08F400008774000086540000836
:103FEC00B13E0008B13E00084F40000821400008D7
:103FFC00CA88012A7FF456AF90F89C32022B7FD8E6
:10400C00002B3FF44FAF0146002341F8083F00F06E
:10401C00BDF94FE7037C002B7FF444AFD0F8B432EA
:10402C000DF106001B6B984707234370BDF8063053
:10403C00EA88002B60D0002A54D1204600F0D6F933
:10404C0038E7037C002B7FF42DAFD0F8B4320DF1A0
:10405C0006005B6B9847E9E7D2B2052A3FF622AF20
:10406C00DFE802F03A342E282217027CD0F8B43262
:10407C00002A68D19B6A0DF1060098470223437011
:10408C00D4E7D0F8B0320DF106011B68007C9847DC
:10409C00CCE7D0F8B0329B69002B3FF403AF207C07
:1040AC000DF106019847C1E7D0F8B0325B69002BDF
:1040BC00F5D1F7E6D0F8B0321B69002BEFD1F1E661
:1040CC00D0F8B032DB68002BE9D1EBE6D0F8B03297
:1040DC009B68002BE3D1E5E6D0F8B0325B68002B8F
:1040EC00DDD1DFE69A4228BF1A4601462046ADF8DC
:1040FC00062000F04BF9EA88002A7FF4DBAE9CE73F
:10410C00032B7FF4CFAE011D00F040F9D2E609B3CA
:10411C004168012991D0C9B2FFF798FD2978204652
:10412C006160FFF785FD022887D1BBE6002984D0AA
:10413C0001210323416080F89C32FFF779FD0228AE
:10414C007FF47BAFAEE6DB6A0DF1060098470223E5
:10415C0043706BE70223416080F89C32FFF776FDD9
:10416C006BE7012384F89C32A4E600BF0C140020FA
:10417C0038B50B780D465A0604460CD503F0600290
:10418C00402A08D08021FCF741FF00212046FCF793
:10419C003DFF002038BD94F89C32013B022B11D816
:1041AC002B79012B0ED8D4F8B43229469B682046C3
:1041BC009847EB88002BECD10028EAD1204600F080
:1041CC0015F9E6E780212046FCF720FF0021204668
:1041DC00FCF71CFF002038BD70B50B78044603F0CB
:1041EC006003202B8A883CD0402B3AD04BB18021E5
:1041FC002046FCF70BFF00212046FCF707FF0020B0
:10420C0070BD4B78D5B2012B42D0032B30D0002B94
:10421C00EDD190F89C32022B53D0032BE7D105F053
:10422C000F0303EB8303120600EB830358D4D3F87C
:10423C005831002BDBD005EB850600EB860606F526
:10424C00AA76002D58D029462046FCF7F7FE002808
:10425C0059D00123336002223146204600F096F8F3
:10426C00CDE7D4F8B43220469B689847002070BD47
:10427C0090F89C32022B1AD0032BB8D14B8893B9EF
:10428C006A0610D0CB8873B92946FCF7BFFE0AE04A
:10429C0090F89C32022B0AD0032BA8D14B88002B10
:1042AC00ADD16E062BD1204600F0A0F8A7E76B0627
:1042BC009DD02946FCF7AAFE80212046FCF7A6FEDD
:1042CC009DE7680693D1002311064CBF04F114013D
:1042DC0004F5AA71022220460B6000F057F88EE715
:1042EC009B69002B83D005F07F06013606EB860612
:1042FC00802D00EB8606A6D100233360ABE7294660
:10430C00FCF790FECFE73060A5E700BF0B78037099
:10431C004B7843704B8843808B888380CB88C380D9
:10432C00704700BF10B504468021FCF76FFE204695
:10433C00BDE810400021FCF769BE00BF08B370B5A2
:10434C00037805460E461446E3B10130FBF7D8FE60
:10435C00431CDBB201335B00DAB2238003233270DF
:10436C0073702C7864B12846022300215A1CD2B2F7
:10437C00F454B15410F8014F0233DBB2002CF5D1D8
:10438C0070BD704702221346E7E700BF10B5134615
:10439C0002240A46C0E907330021C0F89442FCF716
:1043AC006DFE002010BD00BF8C4608B500211346E1
:1043BC006246FCF763FE002008BD00BF10B5134633
:1043CC0003240A46C0E957330021C0F89442FCF795
:1043DC0061FE002010BD00BF8C4608B500211346BD
:1043EC006246FCF757FE002008BD00BF08B504214B
:1043FC000023C0F894121A461946FCF73FFE002021
:10440C0008BD00BF08B505210023C0F894121A4658
:10441C001946FCF73FFE002008BD00BFD0F8BC32A7
:10442C0083B110B5D0F8B84294F80002FF2807D039
:10443C009B68214694F801229847FF2384F80032A8
:10444C00002010BD002070470346432201481A800B
:10445C00704700BFB00000200346432201481A8079
:10446C00704700BFF40000200346432201481A8025
:10447C00704700BF6C00002003460A2201481A80D6
:10448C00704700BF7001002038B50446D0F8B85210
:10449C00FCF70CFED4F8B832C5F80C024BB1D4F8CA
:1044AC00BC32D5F80402DB6805F50371984700208F
:1044BC0038BD022038BD00BF38B5D0F8B842E4B1E1
:1044CC0001EB810300EB830CDCF81C20D0F8C0520C
:1044DC0022B90023C4F81432002038BD05EBC30503
:1044EC00AB6BB2FBF3F503FB1523002BF1D11A4692
:1044FC00CCF81C30FCF7C2FDEEE7022038BD00BF43
:10450C00002370B582B08DF80530ADF806300B780D
:10451C000C4613F060020546D0F8B8621AD0202A77
:10452C0006D028462146FFF7FDFE022002B070BDE2
:10453C00CA8891F801C0F2B11B0632D5D5F8BC324D
:10454C00314660469B68984731462846E288FFF71B
:10455C001DFF15E04B780A2B19D00B2B12D0002B1A
:10456C00DFD190F89C32032BDBD102220DF1060136
:10457C00FFF70CFF04E0D0F8BC3260469B6898470C
:10458C000020D3E790F89C32032BF9D0C9E790F8C0
:10459C009C32032BC5D101220DF10501FFF7F6FE6C
:1045AC00EEE7314686F800C286F80122FFF706FFD7
:1045BC00E6E700BF38B5044600258121FCF71AFD5B
:1045CC0001212046E562FCF715FD82212046C4F846
:1045DC006C51FCF70FFDD4F8B83225644BB1D4F80C
:1045EC00BC325B689847D4F8B802FCF767FDC4F896
:1045FC00B852002038BD00BF70B5037C04469BBB8D
:10460C004FF4007302228121FCF7E6FC01214FF4E8
:10461C00007302222046E162FCF7DEFC012608232F
:10462C00032282212046C4F86C61FCF7D5FC4FF4C0
:10463C0007702664FCF73EFD0546C4F8B80248B383
:10464C00D4F8BC321B6898470023C5F81432C5F85F
:10465C001832237CABB1402331462046D5F80422D6
:10466C00FCF718FD002070BD402302228121FCF7CD
:10467C00B3FC0121402302222046E162FCF7ACFC92
:10468C00CCE74FF4007331462046D5F80422FCF7F2
:10469C0001FDE7E7304670BD034619B10020C3F8B1
:1046AC00BC127047022070470346D3F8B832002082
:1046BC00C3F80812C3F81022704700BF0346D3F8A2
:1046CC00B8320020C3F80412704700BFD0F8B822EB
:1046DC008AB108B5037CD2F804222BB14023012106
:1046EC00FCF7D8FC002008BD4FF400730121FCF747
:1046FC00D1FC002008BD0220704700BFFFF772FA02
:10470C000B480C490C4A002302E0D458C450043323
:10471C00C4188C42F9D3094A094C002301E01360F8
:10472C000432A242FBD300F017F8FCF787F870476D
:10473C00000000207C01002034480008800100208B
:10474C0010140020FEE703460244934200D1704748
:10475C0003F8011BF9E7000070B500260C4D0D4C59
:10476C00641BA410A64209D100F01AF800260A4DC9
:10477C000A4C641BA410A64205D170BD55F8043B2D
:10478C0098470136EEE755F8043B98470136F2E7B7
:10479C002C4800082C4800082C4800083048000819
:1047AC00F8B500BFF8BC08BC9E467047F8B500BF12
:0847BC00F8BC08BC9E467047E2
:1047C40053544D6963726F656C656374726F6E697F
:1047D400637300006370752D6D657465720000006D
:1047E40043444320436F6E6669670000434443209B
:1047F400496E746572666163650000000102000021
:1048040002030405060708090A0B0C0D0E0F10100D
:10481400000000000000000001020304060708096C
:08482400E8B8FF7F010000006D
:04482C00A1070008D8
:0448300079070008FC
:104834001A03000000000000000000000000000057
:104844000000000000000000000000000403090450
:1048540012010002020200408304405700020102D8
:1048640003010000990C0008A50C0008B10C000815
:10487400CD0C0008210D0008E90C0008050D000806
:104884003D0E0008990D00089D0D0008A10D0008BB
:1048940001000000100000000024F4000907430098
:1048A400020104C0320904000001020201000524CF
:1048B400001001052401000104240202052406005D
:1048C400010705820308001009040100020A000020
:1048D40000070501024000000705810240000000B6
:1048E40009024300020100C032090400000102026F
:1048F4000100052400100105240100010424020222
:1049040005240600010705820308001009040100BC
:10491400020A0000000705010240000007058102A9
:104924004000000009024300020100C032090400F3
:104934000001020201000524001001052401000108
:10494400042402020524060001070582030800105E
:1049540009040100020A0000000705010200020028
:10496400070581020002000005460008C145000851
:104974000D4500080000000029440008C544000853
:104984009544000800000000000000000000000042
:10499400654400085544000875440008854400082F
:0C49A4000A0600020000004001000000B4
:04000005080047099F
:00000001FF
